:020000040800F2
:10000000A0050020010100085F1F0008551E000820
:100010005D1F00080D08000879240008000000009A
:10002000000000000000000000000000631F000846
:100030001D08000800000000611F0008651F00087F
:100040001B0100081B0100081B0100081B01000820
:100050001B0100081B0100081B0100081B01000810
:100060001B0100081B0100081B0100081108000803
:100070001B0100081B0100081B0100081B010008F0
:100080001B0100081B010008450700081B010008B0
:100090001B0100081B0100081B0100081B010008D0
:1000A0001B0100081B0100081B0100081B010008C0
:1000B000E12000081B0100081B0100081B010008CB
:1000C0001B0100081B0100081B0100081B010008A0
:1000D0001B010008052400081B0100081B01000883
:1000E0001B0100081B0100081B010008DFF80CD0F1
:1000F00000F066F90048004745260008A0050020EA
:100100000648804706480047FEE7FEE7FEE7FEE7B1
:10011000FEE7FEE7FEE7FEE7FEE7FEE799200008C0
:10012000ED000008D2B201E000F8012B491EFBD21D
:1001300070470022F6E710B513460A4604461946F2
:10014000FFF7F0FF204610BD421E12F8013F002BC2
:10015000FBD111F8013B02F8013B002BF9D17047AC
:10016000421C10F8011B0029FBD1801A704710B502
:10017000002200E0521C835C8C5CA34201D1002B66
:10018000F8D1D8B2E1B2401A10BD00000FB400B5EA
:100190008DB010A909900B9000914FF0FF300A909C
:1001A00000200C9005480690054807906A4609A86B
:1001B0000F9900F0D7F80DB05DF814FB810300082B
:1001C0009F0300082DE9FF5F1D464FF0FF3BD5E977
:1001D000014691465F464FF00008A9697F1C0198CF
:1001E0008847296A824688470028F6D1BAF1FF3F3E
:1001F0000CD024F4C064002E19DD600614D5BAF1C9
:100200002B0F09D0BAF12D0F0ED103E0584604B0E0
:10021000BDE8F09F44F48064A9697F1C0198884779
:10022000761E8246002E02DDBAF1300F03D0B9F1FE
:10023000000F26D032E0A969761E44F400747F1CBA
:10024000019888478246002E05DDBAF1780F06D066
:10025000BAF1580F03D0B9F1000F10D01EE0B9F178
:10026000000F02D0B9F1100F18D1A969761E24F43D
:1002700000747F1C019888478246102002E0082005
:1002800000E00A20814609E008FB0908A969761EFA
:1002900044F400747F1C019888478246002E05DDD7
:1002A0004946504600F04AF80028EDDAE96901981D
:1002B0008847A00502D46FF00100A8E7E00725D128
:1002C000600613D5600502D5C8F1000000E0404685
:1002D00029680A1D2A600968220501D5087015E001
:1002E000220701D5088011E008600FE02868011D91
:1002F00029600068210502D580F8008006E021070A
:1003000002D5A0F8008001E0C0F8008038467EE702
:1003100030B50B46014600202022012409E021FAD5
:1003200002F59D4205D303FA02F5491B04FA02F5D2
:100330002844151EA2F10102F1DC30BD3A2800D29A
:10034000303820F02002412A01D3A2F13700884240
:1003500001D34FF0FF3070470268114413780160F9
:1003600018467047D1600449516104491162002167
:100370001161114600F03CB859030008E50300087C
:10038000426842B1016811F8013B23B1521EC0E935
:100390000012184670470121C160881E70474268EC
:1003A0005AB1C368016843B983688B4205D0491EBE
:1003B000521CC0E90012002070474FF0FF30704718
:1003C000064C074D06E0E06840F0010394E80700A2
:1003D00098471034AC42F6D3FFF78CFE4427000850
:1003E00064270008C0B24FF4F05100F097B9000044
:1003F0002DE9F34F8BB04FF0000801F10C000C46D3
:100400004FF0010B46460DF1080A01906269012187
:1004100001989047051E2DD0252D2CD0216A8847A4
:10042000C0B16269012101989047216A884700287C
:10043000F7D1411E62690198904700E0761CA169DE
:100440000B988847216A88470028F7D1E1690B9803
:100450008847DBE7A1690B9888470746A84201D186
:10046000761CD3E7E1690B9888477F1C02D1B8F16D
:10047000000F6FD046E1002762693D46394601987A
:1004800090472A2804D162690121019890470125EB
:10049000DFF884926269012101989047A0F1300150
:1004A0000A290AD24F45E5DC07EB870100EB41073B
:1004B000303FDFD445F01005ECE7E90601D46FF0DA
:1004C00000476C280AD04C2814D0682815D06A2818
:1004D0000DD074281CD07A281AD01DE06269012141
:1004E000019890476C2802D045F0040514E045F0CF
:1004F00002050DE045F020050AE06269012101983E
:100500009047682802D045F0080505E045F40065ED
:100510006269012101989047C4E9015765283DD0DF
:1005200019DC58287AD00CDC452837D004DC252883
:1005300026D0412831D131E046282FD047282CD170
:100540002CE05B2877D0612828D063287CD06428F1
:1005500023D15AE0D0E06F2848D008DC66281DD0AF
:1005600067281BD0692821D06E2816D127E0702873
:1005700045D0732868D0752847D078280DD14DE034
:10058000A1690B988847054625283FF469AFE169C2
:100590000B9888476D1C3FF46AAFB3E023466A4668
:1005A0006FF001000B99AFF300809EE045F0400032
:1005B0006060A80723464FF0000236D43EE0E8070B
:1005C0007FF447AF2068011D21600068290501D52F
:1005D00006701BE7290701D5068017E7A90703D591
:1005E000F117C0E9006111E706600FE745F0400030
:1005F0006060A80723464FF0080216D41EE040F6BC
:100600000E0125EA0100606016E045F040006060E0
:10061000A80723464FF00A0207D40FE045F0400038
:100620006060A80708D5234610226FF001000B99DF
:10063000AFF3008059E007E0234610226FF001007D
:100640000B99FFF7BFFD50E04FF000094F464B46B6
:10065000632802D05B2806D040E0E80601D40120E0
:10066000A06001273AE062690121019890475E2865
:1006700005D14FF001096269494601989047216907
:1006800039B900210A46534643F82120491C08295C
:10069000FADBB0B3216969B9C11700EBD16253111C
:1006A0000AEB830122F01F02821A01200B6890409E
:1006B00003430B6062690121019890475D28E8D1EE
:1006C000B9F1000F09D00020514651F82020D24343
:1006D00041F82020401C0828F7DB02AB2246009797
:1006E0006FF001000B99AFF3008000280CDA401C7A
:1006F00008D1BBF1000F05D04FF0FF300DB0BDE8C1
:10070000F08FFFE74046F9E7E90701D108F101085A
:1007100006444FF0000B79E6CCCCCC0C7F2801D9F5
:10072000002208E0064A02EB5002C007127800D10E
:10073000120902F00F0201209040084070470000AB
:1007400004270008014800F0EFB80000480000202E
:1007500070B5044600688168C943C9071CD1816827
:1007600021F00101816000F0C7FC05460FE000BFE9
:1007700000F0C2FC401B022809D9A06A40F010001A
:10078000A062E06A40F00100E062012070BD2068D4
:100790008068C043C007EBD0002070BDF8B50026CC
:1007A0000446009600688168C943C90728D081685B
:1007B00041F001018160134813490068B0FBF1F07A
:1007C00000E0401E00900028FBD100F095FC05469B
:1007D00011E000BF00F090FC401B02280BD9A06A7A
:1007E00040F01000A062E06A40F00100E06284F88E
:1007F00024600120F8BD20688068C043C007E9D1AB
:100800000020F8BD4400002040420F00FEE7000039
:10081000014800F0A3BA0000F800002070477047BC
:1008200070470000F8B50024009490F82420254675
:10083000012A12D0012280F824204A681F23072AA7
:100840000DD20668776B521E02EB820293409F43E3
:100850000B6893401F43776319E00220F8BD0668D8
:100860000D2A0AD2376BD21F02EB820293409F43BC
:100870000B6893401F43376309E0F76A0D3A02EBB8
:10088000820293409F430B6893401F43F7620A68BC
:10089000072306680A2A0AD3F7680A3A02EB4202DB
:1008A00093409F438B6893401F43F76008E037698C
:1008B00002EB420293409F438B6893401F43376192
:1008C0000A68102A01D0112A20D1124B02689A42DC
:1008D00017D193681B0219D4936843F40003936003
:1008E0000968102912D10C490C4A0968B1FBF2F1D0
:1008F00001EB8101490000E0491E00910029FBD174
:1009000004E0816A41F020018162012480F82450D2
:100910002046F8BD002401404400002040420F0062
:1009200070470068C06C704710B5044600684168A5
:10093000890626D50168890723D5A16AC90603D48B
:10094000A16A41F40071A1628168C1F342410729A3
:1009500010D1217B71B9416821F020014160A06A6A
:1009600020F48070A062A06AC00403D4A06A40F0A2
:100970000100A0622046FFF7D3FF21686FF012004C
:1009800008602068416809062ED5016849072BD503
:10099000A16AC90603D4A16A41F40051A162816829
:1009A000C1F30231072909D04168490515D481688E
:1009B000C1F34241072910D1217B71B9416821F06F
:1009C00080014160A06A20F48050A062A06AC00546
:1009D00003D4A06A40F00100A0622046FFF720FF88
:1009E00021686FF00C0008602068416849060DD549
:1009F0000068C0070AD0A06A40F48030A062204698
:100A000000F094F821686FF00100086010BD00004C
:100A10002DE9F0414FF0000704003D467ED0A06A6A
:100A2000002628B9E66284F82460204600F080F8A9
:100A30002046FFF78DFEA16AC90600D420B1A06A46
:100A400040F01000A06269E0A16A21F4885141F0F1
:100A50000201A1626268E169237B0A4347EA43011C
:100A60000A43A1684FF48077B94209D0012907D021
:100A70005FF0000194F814C0BCF1010F02D00AE04D
:100A80003946F7E7F3B1A36A43F02003A362E36AB0
:100A900043F00103E3622368D3F804C02CF4694CEB
:100AA0004CEA010CC3F804C021688B68DFF870C001
:100AB00003EA0C0313438B60A168B9420BD00129F0
:100AC00009D00CE0DFF85CC0A3690CEB43330B43A7
:100AD00043F40061DFE7218A0D05A5F58015216843
:100AE000CB6A23F470032B43CB62216889680E4BD9
:100AF0001940914208D1E662A16A21F0020141F059
:100B00000101A162BDE8F081A06A20F0020040F07E
:100B10001000A062E06A40F00100E0620120F1E70D
:100B2000FDF7E1FF00E0FFFFFE0E1FFF7047000032
:100B300070B586B00025064600950195029503958F
:100B400000681E49884236D11D49886940F400700A
:100B50008861886900F400700490886940F004009E
:100B600088618869694600F00400049001200090C3
:100B700003200190134800F0C9F9144C1248C4E94D
:100B800000058020C4E9025080002061800060617F
:100B90002020C4E90605204600F08AF908B1FFF7D5
:100BA0003EFE3462002211461220666200F010FB05
:100BB000122000F0FFFA06B070BD000000240140D2
:100BC000001002400008014008000240F800002028
:100BD00070B5044690F8240001280DD0012084F857
:100BE00024002046FFF7DAFD02004FF0000005D098
:100BF00084F82400104670BD022070BDA16A40F246
:100C00000123994341F48071A1621F4D23681F495C
:100C1000AB4218D10E6816F4702F14D0A66A46F4B1
:100C20008016A6620E68760505D5A66A26F40056DB
:100C300046F48056A662A66AF6040AD5E66A26F04D
:100C40000606E66206E0A66A26F48016A6625E68DC
:100C5000E9E7E06284F824006FF002001860206881
:100C60008368C3F34243072B05D1A84208D1096822
:100C700011F4702F04D0816841F480118160B9E7CC
:100C8000816841F4A001F9E70028014004240140F3
:100C900010B5044690F82400012807D0012084F8FC
:100CA00024002046FFF754FD10B107E0022010BDDC
:100CB000A16A21F4885141F00101A162002184F868
:100CC000241010BD10B590F821100024022903D083
:100CD0000421816301243DE001680A6822F00E02CC
:100CE0000A6001680A6822F001020A601A4A016873
:100CF000914201D1012121E0174A1432914201D1E0
:100D000010211BE0144A2832914201D1891515E0C7
:100D1000114A3C32914201D189140FE00E4A5032FF
:100D2000914202D14FF4803108E00B4A6432914283
:100D300002D14FF4801101E04FF08071064A083A69
:100D40005160012180F82110002180F82010416BB2
:100D500001B18847204610BD080002402DE9F05F30
:100D6000C16B0C6801680B68D0F840C0042202FA1D
:100D70000CF2494DDFF824A1494E4A4FDFF828B163
:100D8000DFF828E122422CD05A072AD50A689206B9
:100D900003D40A6822F004020A600168A94201D162
:100DA000042219E0514501D1402215E0B14202D19F
:100DB0004FF4806210E0B94202D14FF480420BE060
:100DC000594502D14FF4802206E0714502D14FF41B
:100DD000800201E04FF080622F4908394A60C16A01
:100DE0003BE04FF0020808FA0CF818EA040F4FF045
:100DF00000094FF0010235D05FEA837832D50B68E5
:100E00009B0605D40B6823F00A030B6080F82120B1
:100E10000168A94201D1022219E0514501D12022E5
:100E200015E0B14202D14FF4007210E0B94202D194
:100E30004FF400520BE0594502D14FF4003206E066
:100E4000714502D14FF4001201E04FF000721249D7
:100E500008394A6080F82090816A00291AD0BDE8DC
:100E6000F05F0847082505FA0CF5254212D01B074C
:100E700010D50B6823F00E030B6090F84010C36B85
:100E800002FA01F15960826380F8212080F82090F5
:100E9000016BE2E7BDE8F09F080002401C00024041
:100EA0003000024044000240580002406C00024002
:100EB00030B528B308C8134914221944B1FBF2F124
:100EC0008900C16310498163022141771A6843F6A2
:100ED000F0718A43D0E900142143D0E902452C4344
:100EE0002143046921434469214384692143114317
:100EF000196000214163012242770177084630BD25
:100F0000012030BDF8FFFDBF000002402DE9F84F81
:100F1000DFF8B891002409F1040A0AF1040B234612
:100F20000F270BF1040EC9E00125A5402A40AA4273
:100F30007DD1674ED1F804C0ACEB0608B44532D081
:100F400014DCBCF1030F3AD009DCBCF1000F2AD04D
:100F5000BCF1010F1CD0BCF1020F31D11DE0BCF17E
:100F6000110F17D0BCF1120F2AD119E0B8F5881F64
:100F700019D006DCB8F5803F15D0B8F5801F1FD119
:100F800011E0B8F5001F0ED0B8F5041F18D10AE023
:100F9000CB6815E0CB681B1D12E0CB6808330FE06F
:100FA000CB680C330CE08B682BB1012B4FF008039E
:100FB00003D0456104E0042302E0056100E0002362
:100FC000FF2A01D8064601E000F104064FEA840535
:100FD00001D9A5F12005D6F8008007FA05FC28EA1A
:100FE0000C0803FA05F548EA0508C6F800804D68C4
:100FF000ED0062D5374DAE6946F00106AE61AD69D0
:1010000024F0030605F001050095334D06EB050CB1
:10101000DCF80850A607360F07FA06F825EA080597
:10102000DFF8B880404503D14FF0000817E044E0F6
:10103000DFF8AC80404502D14FF001080FE0DFF847
:10104000A480404502D14FF0020808E0DFF8988004
:10105000404502D14FF0030801E04FF0040808FAC0
:1010600006F848EA0508CCF808804D68D9F8006011
:10107000ED034D4601D5164300E096432E604D68C2
:10108000DAF80060AD03554601D5164300E09643FB
:101090002E604D68DBF80060ED025D4601D5164319
:1010A00000E096432E604D68DEF80060AD027546A4
:1010B00001D5164300E096432E60641C0D682A4655
:1010C000E5407FF431AFBDE8F88F00000004014037
:1010D0000000111000100240000001400008014013
:1010E000000C014000100140001401400AB10161F0
:1010F00070470904FBE70000014880687047000062
:1011000038000020024881680278114481607047ED
:1011100038000020074810B5016841F01001016057
:10112000032000F075F8002000F006F800F024F825
:10113000002010BD0020024070B50D4D04464FF454
:101140007A712878B1FBF0F00A490968B1FBF0F038
:1011500000F062FB48B9102C07D200222146501E35
:1011600000F036F800206C6070BD012070BD0000FA
:1011700038000020440000200C4808B5816941F087
:1011800001018161816901F001010091C16941F0B2
:101190008051C161C06900F08050009004484168EE
:1011A00021F0E06141F00071416008BD0010024093
:1011B00000000140002809DB00F01F0201219140DE
:1011C0004009800000F1E020C0F8001170470000E5
:1011D000F0B40E4B1B680C46C3F30223C3F10705A2
:1011E000042D00D90425191D072901D2002300E090
:1011F000DB1E012606FA05F1491E214099409E405A
:10120000761E16403143F0BC01F04CB90CED00E005
:10121000064900F0070208684FF6FF03184040EA4D
:101220000220034A10430860704700000CED00E004
:101230000000FA052DE9F84305460078354CC00753
:1012400054D0E0690026C00008D4E06940F0805026
:10125000E061E069012600F0805000902E480168AE
:10126000C90512D40168804641F480710160FFF71E
:1012700043FF074605E000BFFFF73EFFC01B6428A1
:1012800023D8D8F80000C005F6D5206A10F44070C5
:1012900021D0A98801F4407181421CD0206A1F49E5
:1012A000012220F440700A6000220A602062C00718
:1012B00011D0FFF721FF074641F2883808E000BF50
:1012C000FFF71AFFC11B414502D90320BDE8F8838F
:1012D000206A8007F4D5206A696820F440700843CA
:1012E00020621EB1E06920F08050E061287880071C
:1012F00005D56068A96820F44040084360602878FC
:10130000C00605D56068E96820F480000843606085
:101310000020DBE700100240007000404004424221
:101320002DE9F0470F46050061D0434E306800F0CC
:101330000700B84209D2306820F007003843306017
:10134000306800F00700B84251D128683B4C810753
:1013500012D5400703D5606840F4E06060602878EB
:10136000000703D5606840F4605060606068A96859
:1013700020F0F000084360602878C00728D0686833
:10138000012810D02168022810D0890700292EDA00
:10139000616821F0030101436160FFF7ADFE804603
:1013A00041F288390DE021688903EFE78901EDE713
:1013B000FFF7A2FEA0EB0801494502D90320BDE8D2
:1013C000F0876068696800F00C00B0EB810FEFD126
:1013D000306800F00700B8420BD9306820F00700F1
:1013E00038433060306800F00700B84201D0012077
:1013F000E5E72878400705D56068E96820F4E060F3
:10140000084360602878000706D56068296920F4E1
:10141000605040EAC100606000F038F86168084A36
:10142000C1F30311515CC8400649086006480068D2
:10143000FFF782FE0020C2E70020024000100240B9
:10144000EC260008440000203C0000200448054928
:1014500000684968044AC1F30221515CC8407047E2
:101460004400002000100240FC2600080448054902
:1014700000684968044AC1F3C221515CC840704702
:101480004400002000100240FC26000812A185B094
:101490000FC98DE80F0014A0144A00680490516829
:1014A000134801F00C03042B10D0082B0ED1C1F30C
:1014B0008343C9031DF803000AD5516804AAC1F388
:1014C0004041515C0A4A5043B0FBF1F005B070470F
:1014D00008494843FAE70000020304050607080923
:1014E0000A0B0C0D0E0F101001020000001002403C
:1014F00000127A0000093D002DE9F84F040070D079
:101500002078C04DC00749D06868C0F38100012829
:1015100007D06868C0F38100022809D16868C00359
:1015200006D52868800339D560680028E7D035E003
:101530006068B0F5803F0BD010B1B0F5A02F11D08E
:10154000286820F480302860286820F4802002E099
:10155000286840F480302860606890B1FFF7CCFDC7
:1015600006460AE0286840F480202860F0E700BFC3
:10157000FFF7C2FD801B642873D828688003F7D565
:101580000CE0FFF7B9FD064605E000BFFFF7B4FD2C
:10159000801B6428F0D828688003F7D420789A4EFE
:1015A00080074FF001094FF0000839D5686810F046
:1015B0000C0F07D06868C0F38100022809D1686861
:1015C000C00306D42868800714D52069012808D1F3
:1015D00010E02069B0B1C6F80090FFF78DFD074616
:1015E00005E00AE1FFF788FDC01B0228C4D828687F
:1015F0008007F7D52868616920F0F80040EAC1004B
:1016000028600DE0C6F80080FFF776FD074604E08D
:10161000FFF772FDC01B022823D828688007F7D483
:10162000207800072CD57948A169D9B1C0F800907D
:10163000FFF762FD074604E0FFF75EFDC01B0228CE
:101640000FD8686A8007F7D571484FF4FA510068DF
:10165000B0FBF1F0009000BF0098411E0091FAD25B
:101660000EE080E0C0F80080FFF746FD074604E08A
:10167000FFF742FDC01B022875D8686A8007F7D4BF
:101680002078400760D5E8690027C00008D4E869E1
:1016900040F08050E861E869012700F08050009038
:1016A0005C480168C90513D40168834641F4807120
:1016B0000160FFF721FD824606E000BFFFF71CFD39
:1016C000A0EB0A0064284ED8DBF80000C005F5D571
:1016D000E06801280AD008B1052813D0286A20F054
:1016E00001002862286A20F0040002E0286A40F025
:1016F00001002862E06841F2883B98B1FFF7FCFCEA
:1017000082460BE0286A40F004002862EEE700BF42
:10171000FFF7F2FCA0EB0A0159455AD8286A800766
:10172000F6D50CE0FFF7E8FC824605E0FFF7E4FCA5
:10173000A0EB0A0159454CD8286A8007F6D41FB19E
:10174000E86920F08050E861E06988B36968C1F316
:101750008101022944D00228C6F8608004D0FFF736
:10176000CBFC044638E034E0FFF7C6FC074604E053
:10177000FFF7C2FCC01B02282BD828688001F7D4D1
:10178000206AB0F5803F05D16868A16820F4003078
:1017900008436860D4E908010843696821F47411BA
:1017A00008436860C6F86090FFF7A6FC044606E0B0
:1017B00025E000BFFFF7A0FC001B022809D828681D
:1017C0008001F7D51BE000BFFFF796FC001B022845
:1017D00002D90320BDE8F88F28688001F4D40EE018
:1017E0000128F7D06868226A00F48031914204D160
:1017F000616A00F47010884201D00120EAE70020FD
:10180000E8E700000010024000004242800442422B
:10181000440000200070004010B5401EB0F1807FF1
:1018200001D3012010BD4FF0E02460610F2160174B
:1018300000F038FE0020A06107202061002010BDCC
:101840007047704770B590F83C20012A19D00124E8
:1018500000F83C4F0222427050F83C3C5A689D68A8
:1018600022F070060A684968324325F08005294352
:101870005A6050F83C2C9160447000210170084679
:1018800070BD022070BD10B5040003D094F83D0077
:1018900010B107E0012010BD002084F83C00204674
:1018A00000F00CF8022084F83D00211D206800F0B3
:1018B0001DFC012084F83D00002010BD08B5006823
:1018C000B0F1804F12D10A48C16941F00101C161F4
:1018D000C069002200F00100009011461C20FFF7B3
:1018E00077FCBDE808401C20FFF764BC08BD000081
:1018F0000010024070B5044690F83C00012817D053
:10190000012584F83C50022084F83D00206882685C
:1019100022F0770222F47F4282600868502830D09B
:101920000DDC20284DD005DC98B310283BD148E0D1
:10193000022070BD302844D0402834D139E06028DE
:1019400028D0702806D0B0F5805F2CD0B0F5005FAD
:1019500029D10AE0CB68D1E90121206800F0FCFB25
:101960002068816841F0770109E0CB68D1E9012165
:10197000206800F0F1FB2068816841F480418160BB
:1019800011E0CA684968206800F0F8FB502120681F
:1019900007E016E0CA684968206800F000FC602192
:1019A000206800F0E3FB84F83D50002084F83C0000
:1019B00070BDCA684968206800F0E0FB40212068DB
:1019C000EFE7226801461046EBE7704770B5044622
:1019D000006801694FF00005C943890715D4C16843
:1019E000C943890711D4E91E0161012020772068CD
:1019F00080698007204602D0FFF7E7FF04E000F08F
:101A000098F8204600F096F8257720680169C943C8
:101A1000490717D4C168C943490713D46FF00401BB
:101A20000161022020772068806910F4407F204601
:101A300002D0FFF7CAFF04E000F07BF8204600F078
:101A400079F8257720680169C943090716D4C16868
:101A5000C943090712D46FF00801016104202077FF
:101A60002068C0698007204602D0FFF7AEFF04E07F
:101A700000F05FF8204600F05DF8257720680169E6
:101A8000C943C90617D4C168C943C90613D46FF046
:101A900010010161082020772068C06910F4407FA0
:101AA000204602D0FFF791FF04E000F042F8204604
:101AB00000F040F8257720680169C943C90708D1BB
:101AC000C168C943C90704D1891E0161204600F0DD
:101AD00032F820680169C943090609D4C168C943BD
:101AE000090605D46FF0800101612046FFF7A8FECA
:101AF00020680169C943490609D4C168C943490638
:101B000005D46FF040010161204600F015F820680F
:101B10000169C94389060BD4C168C943890607D442
:101B20006FF0200101612046BDE87040FFF789BEDB
:101B300070BD7047704770477047704770B5026856
:101B400004461068D168536910F00F0F50D003F0AD
:101B5000010501F4907635435DD0C20705D0CA0572
:101B600003D5E26B42F00102E263420705D5DA07D2
:101B700003D0E26B42F00202E263820705D5DA0786
:101B800003D0E26B42F00402E263020705D5DA07F4
:101B900003D0E26B42F00802E263E26B002A33D02A
:101BA000800604D5880602D5204600F020FB206878
:101BB0004069E16BC0F38010090700D428B32046C8
:101BC00000F007FB2068416949061AD5416921F0F8
:101BD00040014161606BA0B11B494163606BFFF73D
:101BE00071F8002810D0606B416BBDE87040084769
:101BF000830610D58B060ED52046BDE8704000F058
:101C0000F6BA2046FFF799FF70BD2046FFF795FF13
:101C10000020E06370BD030606D50B0604D5204600
:101C2000BDE8704000F08ABB4006F3D54806F1D508
:101C3000D168204621F04001D160202184F839107C
:101C400000F007F970BD0000C321000870B5040062
:101C500004D094F83900002510B106E0012070BDD1
:101C600084F83850204600F023F8242084F8390006
:101C70002068C16821F40051C160204600F002FBD9
:101C80002068016921F4904101612068416921F0D7
:101C90002A0141612068C16841F40051C160E563D7
:101CA000202084F8390084F83A00002070BD00003C
:101CB00030B585B000240094019402940394006828
:101CC000184988422CD11848816941F480418161CA
:101CD000816901F480410491816941F004018161CD
:101CE0008069124D00F0040004904FF400700090E1
:101CF000022001900320039069462846FFF706F969
:101D00002815CDE90004694628460294FFF7FEF83D
:101D1000002211462520FFF75BFA2520FFF74AFA3B
:101D200005B030BD003801400010024000080140FD
:101D300090F83A30202B22D1F9B1F2B190F8383036
:101D4000012B1CD081628285C2850021C1632222C1
:101D500080F83A2080F838100168CA6842F480722E
:101D6000CA6001684A6942F001024A610068C168BC
:101D700041F02001C160002070470120704702201F
:101D800070470000012202490248FFF7D1BF00005E
:101D900000000020B80000202DE9F843044690F828
:101DA00039001F4616460D46202850D1A5B19EB1D8
:101DB00094F8380001284AD0012084F838004FF008
:101DC0000008C4F83C80212084F83900FFF794F91A
:101DD000A6848146E68426E00120BDE8F883E08CF5
:101DE000401EE084A0684B46B0F5805F4FF00002D3
:101DF0004FF080012046009703D000F0D0FAE8B9F8
:101E00000DE000F0CCFAC8B928882168C0F30800BA
:101E10004860206908B16D1C05E0AD1C03E0216835
:101E200015F8010B4860E08C0028D8D14B46002201
:101E300040212046009700F0B2FA08B10320CCE719
:101E4000202084F8390084F838800020C5E702207B
:101E5000C3E77047FEE700003EB500240D4800943C
:101E6000019402940A498460016001250573047598
:101E700005614FF460214460C161FEF7C9FDCDE901
:101E80000045694603480294FEF7CCFC3EBD0000C5
:101E9000002401404800002070B586B00024184896
:101EA0000094019402940394816941F010018161CE
:101EB000816901F010010491816941F02001816183
:101EC000816901F020010491816941F0040181617F
:101ED00080690C4E00F004004FF40055049000227D
:101EE00029463046FFF702F901200095CDE90104AB
:101EF0000220039069463046FFF708F806B070BD2F
:101F0000001002400010014010B586B000241248B5
:101F1000009401940294039404944FF0804105943A
:101F2000016048F69F41C0E901144FF4FA61C0E92D
:101F300003148461FFF7A7FC4FF4805000906946BA
:101F40000548FFF7D7FC049404A903480594FFF75C
:101F500079FC06B010BD000078000020FEE7704755
:101F60007047704770B5FFF7CDF82C4C60690128B9
:101F700053D160684EF66025401C01266060A8427F
:101F80002DDAE16859BBA16990FBF1F201FB120067
:101F900028BB2348FEF7C5FC0246E0612069012802
:101FA00008D140F6C410824204D9A068401CA06049
:101FB00000202061B2F5FA7F00D22661174819A1EE
:101FC000203000F05BFA15482030FEF7C9F882B2E5
:101FD000124913480A2320317030FFF7DDFE606894
:101FE000A8421ADBE068002817D10D48E660FEF72A
:101FF0004FFE0A480DA12630A26800F03FFA0748BC
:102000002630FEF7ADF882B20449BDE870400448BE
:102010000A2326317030FFF7BFBE70BD00000020DC
:102020004800002025640D0A0000000042504D20A9
:102030003A2025640000000030B593B0282168469E
:10204000FEF777F814210AA8FEF773F800240120A0
:102050000F9410941194010412948DE813000490CD
:102060004FF4E010CDE90810022507956846FFF708
:1020700043FA0F20CDE90A056802CDE90C400221A0
:102080000AA80E94FFF74CF9A80311900F950FA81A
:10209000FFF7D0F813B030BD0D48016841F00101E1
:1020A000016041680B4A1140416001680A4A1140D1
:1020B0000160016821F480210160416821F4FE0182
:1020C00041604FF41F0181600449C00308607047FC
:1020D000001002400000FFF8FFFFF6FE08ED00E0F0
:1020E0000148FFF773BC000078000020F0B50268DB
:1020F000164B174C174D4FF08047984205D0B84209
:1021000003D0A04201D0A84203D122F070064A6851
:102110003243984205D0B84203D0A04201D0A84231
:1021200003D122F44074CA6822434C6922F0800231
:10213000224302608A68C2620A688262984201D1C0
:102140000969016301214161F0BD0000002C0140DB
:10215000000400400008004010B5846842EA0322F1
:1021600024F47F440A432243826010BD826822F037
:1021700070020A4342F007018160704710B5036A9C
:10218000046A24F001040462846924F0F00444EA3F
:10219000021423F00A020A438461026210BD10B5E2
:1021A000036A23F0100303628369046A23F4704313
:1021B00043EA023224F0A00343EA01118261016282
:1021C00010BD10B5406A0021C185C184FFF7B5FC80
:1021D00010BD0168CA6822F49072CA6001684A6939
:1021E00022F001024A61202180F83A10704710B5B0
:1021F00090F83A10222901D0022010BD8168B1F573
:10220000805F11D00169002901681FD0496801F081
:102210007F03816A4A1C82620B70C18D491E0904CA
:10222000090CC18518D02BE00269816A002A026876
:10223000526805D0D2B20A80816A491C8162ECE7FB
:10224000C2F308020A80816A891CF7E74A68816A3A
:102250004B1C83620A70E0E70168CA6822F0200222
:10226000CA600168CA6822F48072CA6001684A695B
:1022700022F001024A61202180F83A10FFF782FD26
:10228000002010BD2DE9F041044600680169E268B4
:1022900021F44051114301612169A068084361693B
:1022A00008432168CA6841F20C639A430243CA603A
:1022B00020684169A26921F44071114341611E49BE
:1022C000206864253226884202D1FFF7CFF801E06A
:1022D000FFF7BCF800EBC00101EB001160686FF084
:1022E00018078000B1FBF0F2B2FBF5F2B1FBF0F39E
:1022F0007A4303EB8202B1FBF0F306EB0212B2FB6E
:10230000F5F2B3FBF5F302F0F00202EB0312B1FBBE
:10231000F0F3B1FBF0F0B0FBF5F0784303EB800095
:1023200006EB0010B0FBF5F0216800F00F00104440
:102330008860BDE8F08100000038014090F8391055
:10234000212901D0022070478168B1F5805F016AC0
:102350000BD04A1C0262026809785160C18C491E88
:102360000904090CC1840ED017E009880268C1F382
:102370000801516001690029016A02D0491C01620B
:10238000ECE7891CFBE70168CA6822F08002CA609A
:102390000068C16841F04001C160002070472DE92C
:1023A000F041984617460E460446069D1DE0681CFF
:1023B0001BD02DB1FEF7A0FEA0EB0800A84214D957
:1023C0002068C16821F4D071C1602068416921F0A2
:1023D00001014161202084F8390084F83A0000208E
:1023E00084F838000320BDE8F0812068006836EAF0
:1023F000000004D00020B842D9D00020F3E701202B
:10240000F9E7000010B5134C4FF0FF30206060601A
:102410001148FFF793FB11A11148FDF7A8FE28B161
:10242000BDE810400E490F48FDF78EBE094A0EA1C7
:102430000C48FDF7ABFE20684FF47A7191FBF0F089
:102440000A4908600A4901200860BDE810400948AF
:10245000FEF7BEBB30000020B80000200D000000D9
:10246000000000203C01002025640000180000202E
:102470001400002048000020FEE700000FB4084BC5
:1024800010B504A902AA039800F02CF8044602A98A
:10249000002000F0D1F8204610BC5DF814FB0000CD
:1024A000392600080907090E002804DB00F1E020A6
:1024B00080F80014704700F00F0000F1E02080F871
:1024C000141D704702E008C8121F08C1002AFAD183
:1024D00070477047002001E001C1121F002AFBD1A4
:1024E000704700002DE9FF4F89B09B460446002548
:1024F00006E025280BD05A460B999047641C6D1CAA
:1025000020780028F5D10DB02846BDE8F08F0027CF
:10251000B8460122474900E0074314F8013F203B39
:1025200002FA03F00842F7D120782E2819D114F8C6
:10253000010F47F004072A280ED06FF02F022078F1
:10254000A0F1300109290CD808EB880102EB410108
:1025500000EB0108641CF2E70A98641C50F8048B35
:102560000A9020780028CED0642808D0692806D0A8
:1025700075281ED05A460B9990476D1C58E00A9951
:102580004FF00A0901C90A91002802DA40422D21C0
:1025900002E0390504D52B218DF82010012103E03C
:1025A000F90704D02021F7E78A4608AE0DE00021A4
:1025B000FAE70A994FF00A0901C90A91F7E7494673
:1025C000FDF7A6FE303106F8011D0028F7D1ADEB6E
:1025D000060000F12009780701D44FF00108C84532
:1025E00002DDA8EB090000E000208046002706E09D
:1025F00008A85A46C05D0B9990476D1C7F1C574533
:10260000F6DB04E030205A460B9990476D1CB8F178
:102610000001A8F10108F5DC05E016F8010B5A46A7
:102620000B9990476D1CB9F10001A9F10109F4DC87
:10263000641C65E7092801000A68531C0B601070D0
:102640007047000008B5FEF765FDFFF7F5FCFFF7E2
:10265000F3FC20484FF47A7100240068B0FBF1F0DD
:10266000401EB0F1807F09D24FF0E02148611A4A44
:10267000F02082F8140D8C6107200861FFF70CFC34
:102680001648416941F0010141614069002200F0B2
:102690000100009011460B20FEF79AFD0B20FEF77B
:1026A00089FDFFF7D9FB0F480D4901604FF4FA315E
:1026B000C0E901140C21C460C0E904418461C46113
:1026C000FFF7C4FAFFF720FC012207490548FFF78E
:1026D0002FFBFEE7440000200FE000E00010024066
:1026E00000380140B8000020000000200000000079
:1026F00000000000010203040607080900000000B2
:1027000001020304DDDDDDDDDCBBBBDDDDDDDDDDA8
:10271000DDDDDDDD98888888888888887777777719
:1027200077888888855555566666666666666666E5
:102730006668888883333332222222222222222290
:102740002228888D6427000800000020480000002F
:10275000C4240008AC2700084800002058050000E9
:10276000D424000800000000000000000000000069
:102770000000000001000000000000000000000058
:102780000000000000000000000000000000000049
:1027900000000000FFFFFFFFFFFFFFFF0100000040
:0C27A00010000000000000000024F40005
:04000005080000ED02
:00000001FF
